{
  "_format": "hh-sol-artifact-1",
  "contractName": "Upload",
  "sourceName": "contracts/Upload.sol",
  "abi": [
    {
      "inputs": [
        {
          "internalType": "address",
          "name": "_user",
          "type": "address"
        },
        {
          "internalType": "string",
          "name": "url",
          "type": "string"
        }
      ],
      "name": "add",
      "outputs": [],
      "stateMutability": "nonpayable",
      "type": "function"
    },
    {
      "inputs": [
        {
          "internalType": "address",
          "name": "user",
          "type": "address"
        }
      ],
      "name": "allow",
      "outputs": [],
      "stateMutability": "nonpayable",
      "type": "function"
    },
    {
      "inputs": [
        {
          "internalType": "address",
          "name": "user",
          "type": "address"
        }
      ],
      "name": "disallow",
      "outputs": [],
      "stateMutability": "nonpayable",
      "type": "function"
    },
    {
      "inputs": [
        {
          "internalType": "address",
          "name": "_user",
          "type": "address"
        }
      ],
      "name": "display",
      "outputs": [
        {
          "internalType": "string[]",
          "name": "",
          "type": "string[]"
        }
      ],
      "stateMutability": "view",
      "type": "function"
    },
    {
      "inputs": [
        {
          "internalType": "address",
          "name": "_user",
          "type": "address"
        }
      ],
      "name": "getaccesslist",
      "outputs": [
        {
          "components": [
            {
              "internalType": "address",
              "name": "user",
              "type": "address"
            },
            {
              "internalType": "bool",
              "name": "access",
              "type": "bool"
            }
          ],
          "internalType": "struct Upload.Access[]",
          "name": "",
          "type": "tuple[]"
        }
      ],
      "stateMutability": "view",
      "type": "function"
    },
    {
      "inputs": [],
      "name": "shareAccess",
      "outputs": [
        {
          "components": [
            {
              "internalType": "address",
              "name": "user",
              "type": "address"
            },
            {
              "internalType": "bool",
              "name": "access",
              "type": "bool"
            }
          ],
          "internalType": "struct Upload.Access[]",
          "name": "",
          "type": "tuple[]"
        }
      ],
      "stateMutability": "view",
      "type": "function"
    }
  ],
  "bytecode": "0x608060405234801561001057600080fd5b5061154f806100206000396000f3fe608060405234801561001057600080fd5b50600436106100625760003560e01c806336d6da55146100675780633dc24a3014610083578063a9ed9cb8146100b3578063bc8bef81146100cf578063eb39113f146100ed578063ff9913e81461011d575b600080fd5b610081600480360381019061007c9190610df8565b610139565b005b61009d60048036038101906100989190610e54565b6101ae565b6040516100aa9190610f89565b60405180910390f35b6100cd60048036038101906100c89190610e54565b6102b9565b005b6100d76104db565b6040516100e49190610f89565b60405180910390f35b61010760048036038101906101029190610e54565b6105e4565b60405161011491906110ec565b60405180910390f35b61013760048036038101906101329190610e54565b6107fa565b005b6000808373ffffffffffffffffffffffffffffffffffffffff1673ffffffffffffffffffffffffffffffffffffffff168152602001908152602001600020819080600181540180825580915050600190039060005260206000200160009091909190915090816101a99190611324565b505050565b6060600260008373ffffffffffffffffffffffffffffffffffffffff1673ffffffffffffffffffffffffffffffffffffffff168152602001908152602001600020805480602002602001604051908101604052809291908181526020016000905b828210156102ae578382906000526020600020016040518060400160405290816000820160009054906101000a900473ffffffffffffffffffffffffffffffffffffffff1673ffffffffffffffffffffffffffffffffffffffff1673ffffffffffffffffffffffffffffffffffffffff1681526020016000820160149054906101000a900460ff1615151515815250508152602001906001019061020f565b505050509050919050565b6000600160003373ffffffffffffffffffffffffffffffffffffffff1673ffffffffffffffffffffffffffffffffffffffff16815260200190815260200160002060008373ffffffffffffffffffffffffffffffffffffffff1673ffffffffffffffffffffffffffffffffffffffff16815260200190815260200160002060006101000a81548160ff02191690831515021790555060005b600260003373ffffffffffffffffffffffffffffffffffffffff1673ffffffffffffffffffffffffffffffffffffffff168152602001908152602001600020805490508110156104d7578173ffffffffffffffffffffffffffffffffffffffff16600260003373ffffffffffffffffffffffffffffffffffffffff1673ffffffffffffffffffffffffffffffffffffffff1681526020019081526020016000208281548110610403576104026113f6565b5b9060005260206000200160000160009054906101000a900473ffffffffffffffffffffffffffffffffffffffff1673ffffffffffffffffffffffffffffffffffffffff16036104c4576000600260003373ffffffffffffffffffffffffffffffffffffffff1673ffffffffffffffffffffffffffffffffffffffff168152602001908152602001600020828154811061049f5761049e6113f6565b5b9060005260206000200160000160146101000a81548160ff0219169083151502179055505b80806104cf90611454565b915050610351565b5050565b6060600260003373ffffffffffffffffffffffffffffffffffffffff1673ffffffffffffffffffffffffffffffffffffffff168152602001908152602001600020805480602002602001604051908101604052809291908181526020016000905b828210156105db578382906000526020600020016040518060400160405290816000820160009054906101000a900473ffffffffffffffffffffffffffffffffffffffff1673ffffffffffffffffffffffffffffffffffffffff1673ffffffffffffffffffffffffffffffffffffffff1681526020016000820160149054906101000a900460ff1615151515815250508152602001906001019061053c565b50505050905090565b60603373ffffffffffffffffffffffffffffffffffffffff168273ffffffffffffffffffffffffffffffffffffffff1614806106a65750600160008373ffffffffffffffffffffffffffffffffffffffff1673ffffffffffffffffffffffffffffffffffffffff16815260200190815260200160002060003373ffffffffffffffffffffffffffffffffffffffff1673ffffffffffffffffffffffffffffffffffffffff16815260200190815260200160002060009054906101000a900460ff165b6106e5576040517f08c379a00000000000000000000000000000000000000000000000000000000081526004016106dc906114f9565b60405180910390fd5b6000808373ffffffffffffffffffffffffffffffffffffffff1673ffffffffffffffffffffffffffffffffffffffff168152602001908152602001600020805480602002602001604051908101604052809291908181526020016000905b828210156107ef5783829060005260206000200180546107629061113d565b80601f016020809104026020016040519081016040528092919081815260200182805461078e9061113d565b80156107db5780601f106107b0576101008083540402835291602001916107db565b820191906000526020600020905b8154815290600101906020018083116107be57829003601f168201915b505050505081526020019060010190610743565b505050509050919050565b60018060003373ffffffffffffffffffffffffffffffffffffffff1673ffffffffffffffffffffffffffffffffffffffff16815260200190815260200160002060008373ffffffffffffffffffffffffffffffffffffffff1673ffffffffffffffffffffffffffffffffffffffff16815260200190815260200160002060006101000a81548160ff021916908315150217905550600360003373ffffffffffffffffffffffffffffffffffffffff1673ffffffffffffffffffffffffffffffffffffffff16815260200190815260200160002060008273ffffffffffffffffffffffffffffffffffffffff1673ffffffffffffffffffffffffffffffffffffffff16815260200190815260200160002060009054906101000a900460ff1615610aac5760005b600260003373ffffffffffffffffffffffffffffffffffffffff1673ffffffffffffffffffffffffffffffffffffffff16815260200190815260200160002080549050811015610aa6578173ffffffffffffffffffffffffffffffffffffffff16600260003373ffffffffffffffffffffffffffffffffffffffff1673ffffffffffffffffffffffffffffffffffffffff16815260200190815260200160002082815481106109d2576109d16113f6565b5b9060005260206000200160000160009054906101000a900473ffffffffffffffffffffffffffffffffffffffff1673ffffffffffffffffffffffffffffffffffffffff1603610a93576001600260003373ffffffffffffffffffffffffffffffffffffffff1673ffffffffffffffffffffffffffffffffffffffff1681526020019081526020016000208281548110610a6e57610a6d6113f6565b5b9060005260206000200160000160146101000a81548160ff0219169083151502179055505b8080610a9e90611454565b915050610920565b50610c3d565b600260003373ffffffffffffffffffffffffffffffffffffffff1673ffffffffffffffffffffffffffffffffffffffff16815260200190815260200160002060405180604001604052808373ffffffffffffffffffffffffffffffffffffffff168152602001600115158152509080600181540180825580915050600190039060005260206000200160009091909190915060008201518160000160006101000a81548173ffffffffffffffffffffffffffffffffffffffff021916908373ffffffffffffffffffffffffffffffffffffffff16021790555060208201518160000160146101000a81548160ff02191690831515021790555050506001600360003373ffffffffffffffffffffffffffffffffffffffff1673ffffffffffffffffffffffffffffffffffffffff16815260200190815260200160002060008373ffffffffffffffffffffffffffffffffffffffff1673ffffffffffffffffffffffffffffffffffffffff16815260200190815260200160002060006101000a81548160ff0219169083151502179055505b50565b6000604051905090565b600080fd5b600080fd5b600073ffffffffffffffffffffffffffffffffffffffff82169050919050565b6000610c7f82610c54565b9050919050565b610c8f81610c74565b8114610c9a57600080fd5b50565b600081359050610cac81610c86565b92915050565b600080fd5b600080fd5b6000601f19601f8301169050919050565b7f4e487b7100000000000000000000000000000000000000000000000000000000600052604160045260246000fd5b610d0582610cbc565b810181811067ffffffffffffffff82111715610d2457610d23610ccd565b5b80604052505050565b6000610d37610c40565b9050610d438282610cfc565b919050565b600067ffffffffffffffff821115610d6357610d62610ccd565b5b610d6c82610cbc565b9050602081019050919050565b82818337600083830152505050565b6000610d9b610d9684610d48565b610d2d565b905082815260208101848484011115610db757610db6610cb7565b5b610dc2848285610d79565b509392505050565b600082601f830112610ddf57610dde610cb2565b5b8135610def848260208601610d88565b91505092915050565b60008060408385031215610e0f57610e0e610c4a565b5b6000610e1d85828601610c9d565b925050602083013567ffffffffffffffff811115610e3e57610e3d610c4f565b5b610e4a85828601610dca565b9150509250929050565b600060208284031215610e6a57610e69610c4a565b5b6000610e7884828501610c9d565b91505092915050565b600081519050919050565b600082825260208201905092915050565b6000819050602082019050919050565b610eb681610c74565b82525050565b60008115159050919050565b610ed181610ebc565b82525050565b604082016000820151610eed6000850182610ead565b506020820151610f006020850182610ec8565b50505050565b6000610f128383610ed7565b60408301905092915050565b6000602082019050919050565b6000610f3682610e81565b610f408185610e8c565b9350610f4b83610e9d565b8060005b83811015610f7c578151610f638882610f06565b9750610f6e83610f1e565b925050600181019050610f4f565b5085935050505092915050565b60006020820190508181036000830152610fa38184610f2b565b905092915050565b600081519050919050565b600082825260208201905092915050565b6000819050602082019050919050565b600081519050919050565b600082825260208201905092915050565b60005b83811015611011578082015181840152602081019050610ff6565b60008484015250505050565b600061102882610fd7565b6110328185610fe2565b9350611042818560208601610ff3565b61104b81610cbc565b840191505092915050565b6000611062838361101d565b905092915050565b6000602082019050919050565b600061108282610fab565b61108c8185610fb6565b93508360208202850161109e85610fc7565b8060005b858110156110da57848403895281516110bb8582611056565b94506110c68361106a565b925060208a019950506001810190506110a2565b50829750879550505050505092915050565b600060208201905081810360008301526111068184611077565b905092915050565b7f4e487b7100000000000000000000000000000000000000000000000000000000600052602260045260246000fd5b6000600282049050600182168061115557607f821691505b6020821081036111685761116761110e565b5b50919050565b60008190508160005260206000209050919050565b60006020601f8301049050919050565b600082821b905092915050565b6000600883026111d07fffffffffffffffffffffffffffffffffffffffffffffffffffffffffffffffff82611193565b6111da8683611193565b95508019841693508086168417925050509392505050565b6000819050919050565b6000819050919050565b600061122161121c611217846111f2565b6111fc565b6111f2565b9050919050565b6000819050919050565b61123b83611206565b61124f61124782611228565b8484546111a0565b825550505050565b600090565b611264611257565b61126f818484611232565b505050565b5b818110156112935761128860008261125c565b600181019050611275565b5050565b601f8211156112d8576112a98161116e565b6112b284611183565b810160208510156112c1578190505b6112d56112cd85611183565b830182611274565b50505b505050565b600082821c905092915050565b60006112fb600019846008026112dd565b1980831691505092915050565b600061131483836112ea565b9150826002028217905092915050565b61132d82610fd7565b67ffffffffffffffff81111561134657611345610ccd565b5b611350825461113d565b61135b828285611297565b600060209050601f83116001811461138e576000841561137c578287015190505b6113868582611308565b8655506113ee565b601f19841661139c8661116e565b60005b828110156113c45784890151825560018201915060208501945060208101905061139f565b868310156113e157848901516113dd601f8916826112ea565b8355505b6001600288020188555050505b505050505050565b7f4e487b7100000000000000000000000000000000000000000000000000000000600052603260045260246000fd5b7f4e487b7100000000000000000000000000000000000000000000000000000000600052601160045260246000fd5b600061145f826111f2565b91507fffffffffffffffffffffffffffffffffffffffffffffffffffffffffffffffff820361149157611490611425565b5b600182019050919050565b600082825260208201905092915050565b7f596f7520646f6e27742068617665206163636573730000000000000000000000600082015250565b60006114e360158361149c565b91506114ee826114ad565b602082019050919050565b60006020820190508181036000830152611512816114d6565b905091905056fea26469706673582212209b4fda45e852f35c2a45d6bede7f800800f8e1dd623705f31bdd25707db510f964736f6c63430008130033",
  "linkReferences": {},
  "deployedLinkReferences": {}
}